:100000000C943E000C9429020C9452020C947B0236
:100010000C945B000C945B000C94A5060C945B00A4
:100020000C945B000C945B000C946C060C943106F1
:100030000C945B000C945B000C945B000C945B00D4
:100040000C945B000C945B000C945B000C945B00C4
:100050000C945B00FB03100425043A044F04640471
:1000600079048E04A304B804D704EC040105160532
:100070002B05400555056A057F05940511241FBE13
:10008000CFE5D8E0DEBFCDBF10E0A0E6B0E0EAE209
:10009000FEE002C005900D92A236B107D9F720E02C
:1000A000A2E6B0E001C01D92AD38B207E1F70E94B0
:1000B00019030C9413070C94000087B1806487B96E
:1000C00087B18F7787B987B18F7D87B986B18F7DEB
:1000D00086B986B1816086B986B1826086B986B1FB
:1000E000846086B986B1806886B908958032D0F47C
:1000F00061157105B9F097B1907E97B997B1892BC9
:1001000087B986B1806486B9349BFECF86B18061A1
:1001100086B984B195B1A0E0B0E0FB018083918302
:10012000A283B3830895843008F072C0683008F069
:100130006FC0423008F06CC0813001F130F0823085
:10014000B1F1833009F44CC00895413059F42AB319
:1001500081E090E002C0880F991F6A95E2F7822B38
:100160008ABB08952AB381E090E002C0880F991FEE
:100170006A95E2F7809582238ABB0895413059F44D
:1001800027B381E090E002C0880F991F6A95E2F7DB
:10019000822B87BB089527B381E090E002C0880FCF
:1001A000991F6A95E2F78095822387BB08954130B5
:1001B00059F424B381E090E002C0880F991F6A953A
:1001C000E2F7822B84BB089524B381E090E002C063
:1001D000880F991F6A95E2F78095822384BB089562
:1001E000413059F421B381E090E002C0880F991F9B
:1001F0006A95E2F7822B81BB089521B381E090E0FC
:1002000002C0880F991F6A95E2F78095822381BB0F
:100210000895843008F072C0683008F06FC0423032
:1002200008F06CC0813001F130F08230B1F18330E0
:1002300009F44CC00895413059F42BB381E090E0AB
:1002400002C0880F991F6A95E2F7822B8BBB089535
:100250002BB381E090E002C0880F991F6A95E2F706
:10026000809582238BBB0895413059F428B381E0F7
:1002700090E002C0880F991F6A95E2F7822B88BB35
:10028000089528B381E090E002C0880F991F6A9515
:10029000E2F78095822388BB0895413059F425B355
:1002A00081E090E002C0880F991F6A95E2F7822BE7
:1002B00085BB089525B381E090E002C0880F991FA7
:1002C0006A95E2F78095822385BB0895413059F401
:1002D00022B381E090E002C0880F991F6A95E2F78F
:1002E000822B82BB089522B381E090E002C0880F88
:1002F000991F6A95E2F78095822382BB0895843026
:10030000A8F5683098F5813089F028F08230C9F07E
:10031000833011F108952BB381E090E002C0880F83
:10032000991F6A95E2F782278BBB089528B381E075
:1003300090E002C0880F991F6A95E2F7822788BB78
:10034000089525B381E090E002C0880F991F6A9557
:10035000E2F7822785BB089522B381E090E002C0D6
:10036000880F991F6A95E2F7822782BB0895813032
:1003700061F120F0823009F44FC00895611107C087
:1003800085B7816085BF85B7826085BF1AC061303F
:1003900039F485B78E7F85BF85B7826085BF11C070
:1003A000623039F485B78E7F85BF85B78D7F85BF75
:1003B00008C0633031F485B7816085BF85B78D7F14
:1003C00085BF8BB780648BBF0895611107C085B767
:1003D000846085BF85B7886085BF1AC0613039F4F5
:1003E00085B78B7F85BF85B7886085BF11C06230B8
:1003F00039F485B78B7F85BF85B7877F85BF08C0F8
:10040000633031F485B7846085BF85B7877F85BF4A
:100410008BB780688BBF0895611104C084B7806476
:1004200084BF05C0613019F484B78F7B84BF8BB75C
:1004300080628BBF0895009721F0909367008093AE
:1004400066000895009721F0909365008093640002
:1004500008951F920F920FB60F9211242F933F937E
:100460004F935F936F937F938F939F93AF93BF93BC
:10047000EF93FF93E0916600F0916700309709F0E9
:100480000995FF91EF91BF91AF919F918F917F91CE
:100490006F915F914F913F912F910F900FBE0F90F1
:1004A0001F9018951F920F920FB60F9211242F9341
:1004B0003F934F935F936F937F938F939F93AF93EC
:1004C000BF93EF93FF93E0916400F0916500309744
:1004D00009F00995FF91EF91BF91AF919F918F9195
:1004E0007F916F915F914F913F912F910F900FBE30
:1004F0000F901F9018951F920F920FB60F92112414
:100500002F933F934F935F936F937F938F939F931B
:10051000AF93BF93EF93FF93E0916200F09163007C
:10052000309709F00995FF91EF91BF91AF919F919D
:100530008F917F916F915F914F913F912F910F908C
:100540000FBE0F901F90189541E065E082E00E9479
:100550009300089541E065E082E00E94090108955A
:1005600040E065E082E00E94090108958FB780684D
:100570008FBF089541E062E082E00E9493000895F9
:1005800041E062E082E00E940901089540E062E0FB
:1005900082E00E94090108950E945D000895CF93B2
:1005A000DF9300D000D0CDB7DEB7BE016F5F7F4FC5
:1005B00081E00E94760029813A814B815C81A4EF21
:1005C000B1E00E940807DC01CB01072E7AE0B69566
:1005D000A795979587957A95D1F7702D0F900F90E5
:1005E0000F900F90DF91CF9108951092890081E0D4
:1005F00080938B0008950E94160681E080938A0004
:1006000080938C0010928B00809179008F5F809393
:10061000790008950E94160681E080938A008093F5
:10062000880010928B00809179008F5F8093790011
:1006300008950E94CC020E94A9050E94A4020E9473
:10064000BA020E940A0685EF92E00E942A0640E064
:1006500062E083E00E94930040E063E083E00E9458
:10066000930040E061E080E00E9493008BEF92E015
:100670000E941B028AE093E00E9422020E94B602BE
:1006800061E080E00E94B70161E081E00E94B70173
:1006900010928A0081E080938B001092790081E0B3
:1006A0008093890080918A00813009F04EC01092B9
:1006B0008A0045C063E081E00E947F012FEF80E760
:1006C00092E0215080409040E1F700C0000080910E
:1006D0007900813031F48091600090E00E94DC0567
:1006E0002EC0823060F180918C00813091F40E94A4
:1006F00020060E941606809160008B3418F48B5FF0
:10070000809360008091600090E00E94DC05109270
:100710008C0080918800813091F40E9420060E9414
:10072000160680916000843218F085508093600036
:100730008091600090E00E94DC051092880080911A
:1007400089008111B7CF1092790080918B008130A0
:1007500009F0A5CF40E063E00E9409010E94CF02AA
:10076000AC0160E070E040937A0050937B006093AE
:100770007C0070937D000E94DC058091600090E019
:10078000A0E0B0E040917A0050917B0060917C0045
:1007900070917D00481759076A077B0748F40E944B
:1007A000C00267E082E00E947F010E94B00277CF22
:1007B00084179507A607B70750F40E94AA0241E0E4
:1007C00067E082E00E9409010E94C60268CF0E9491
:1007D000B00240E067E082E00E9409010E94C60288
:1007E0005ECF90E08A30910508F0D6C0FC01E65D4E
:1007F000FF4F0C94F30640E064E080E00E940901A2
:1008000040E065E080E00E94090140E066E080E0B1
:100810000E94090140E067E080E00E94090108951C
:1008200041E064E080E00E94090140E065E080E092
:100830000E94090140E066E080E00E94090140E07A
:1008400067E080E00E940901089540E064E080E0F4
:100850000E94090141E065E080E00E94090140E05A
:1008600066E080E00E94090140E067E080E00E94CD
:100870000901089541E064E080E00E94090141E03F
:1008800065E080E00E94090140E066E080E00E94AF
:10089000090140E067E080E00E940901089540E01E
:1008A00064E080E00E94090140E065E080E00E9491
:1008B000090141E066E080E00E94090140E067E054
:1008C00080E00E940901089541E064E080E00E9418
:1008D000090140E065E080E00E94090141E066E036
:1008E00080E00E94090140E067E080E00E94090189
:1008F000089540E064E080E00E94090141E065E085
:1009000080E00E94090141E066E080E00E94090168
:1009100040E067E080E00E940901089541E064E062
:1009200080E00E94090141E065E080E00E94090149
:1009300041E066E080E00E94090140E067E080E07D
:100940000E940901089540E064E080E00E940901EE
:1009500040E065E080E00E94090140E066E080E060
:100960000E94090141E067E080E00E9409010895CA
:1009700041E064E080E00E94090140E065E080E041
:100980000E94090140E066E080E00E94090141E028
:1009900067E080E00E940901089590E08A309105A7
:1009A00008F0D6C0FC01EC5CFF4F0C94F30640E06D
:1009B00064E081E00E94090140E065E081E00E947E
:1009C000090140E066E081E00E94090140E067E043
:1009D00081E00E940901089541E064E081E00E9405
:1009E000090140E065E081E00E94090140E066E025
:1009F00081E00E94090140E067E081E00E94090176
:100A0000089540E064E081E00E94090141E065E072
:100A100081E00E94090140E066E081E00E94090156
:100A200040E067E081E00E940901089541E064E050
:100A300081E00E94090141E065E081E00E94090136
:100A400040E066E081E00E94090140E067E081E06B
:100A50000E940901089540E064E081E00E940901DC
:100A600040E065E081E00E94090141E066E081E04C
:100A70000E94090140E067E081E00E9409010895B9
:100A800041E064E081E00E94090140E065E081E02E
:100A90000E94090141E066E081E00E94090140E016
:100AA00067E081E00E940901089540E064E081E090
:100AB0000E94090141E065E081E00E94090141E0F6
:100AC00066E081E00E94090140E067E081E00E9469
:100AD0000901089541E064E081E00E94090141E0DC
:100AE00065E081E00E94090141E066E081E00E944A
:100AF000090140E067E081E00E940901089540E0BB
:100B000064E081E00E94090140E065E081E00E942C
:100B1000090140E066E081E00E94090141E067E0F0
:100B200081E00E940901089541E064E081E00E94B3
:100B3000090140E065E081E00E94090140E066E0D3
:100B400081E00E94090141E067E081E00E94090123
:100B5000089541E063E081E00E94930041E064E099
:100B600080E00E94930041E065E080E00E949300F5
:100B700041E066E080E00E94930041E067E080E0B1
:100B80000E94930041E064E081E00E94930041E014
:100B900065E081E00E94930041E066E081E00E9410
:100BA000930041E067E081E00E94930040E063E051
:100BB00081E00E9409010895CF93DF93AC019C016D
:100BC000ADECBCEC0E94F906EC01D695C795D69524
:100BD000C795D695C795CE01880F991FCC0FDD1FFD
:100BE000CC0FDD1FCC0FDD1FC80FD91FCA018C1B16
:100BF0009D0BEC010E94F906969587959695879531
:100C0000969587950E94F1038C2F0E94CD04DF9169
:100C1000CF91089583B78F7B83BF83B7877F83BFCF
:100C200082E582BF89B7816089BF089583B78160FB
:100C300083BF83B7826083BF83B78B7F83BF0895F1
:100C400083B78E7F83BF83B78D7F83BF83B78B7F4F
:100C500083BF0895009721F09093780080937700E8
:100C600008951F920F920FB60F9211242F933F9366
:100C70004F935F936F937F938F939F93AF93BF93A4
:100C8000EF93FF9380916F00909170000196909385
:100C9000700080936F00883B9B4069F482E582BFBF
:100CA0001092700010926F00E0917700F091780040
:100CB000309709F00995FF91EF91BF91AF919F9106
:100CC0008F917F916F915F914F913F912F910F90F5
:100CD0000FBE0F901F9018951F920F920FB60F9294
:100CE00011242F933F934F935F936F937F938F9331
:100CF0009F93AF93BF93EF93FF9380916D0090917B
:100D00006E00019690936E0080936D00883E934034
:100D100059F410926E0010926D00E0917500F09100
:100D20007600309709F00995FF91EF91BF91AF914F
:100D30009F918F917F916F915F914F913F912F91F3
:100D40000F900FBE0F901F9018951F920F920FB625
:100D50000F9211242F933F938F939F9386B597B54E
:100D600090936C0080936B0020916A002130A1F475
:100D70002091680030916900821B930B880F991FA6
:100D8000880F991F90937200809371008EB58F7BAE
:100D90008EBD10926A0016C0211114C02091680007
:100DA00030916900821B930B880F991F880F991F40
:100DB00090937400809373008EB580648EBD81E043
:100DC00080936A0080916B0090916C009093690011
:100DD000809368009F918F913F912F910F900FBE4C
:100DE0000F901F901895EE0FFF1F0590F491E02DC6
:100DF0000994A29FB001B39FC001A39F700D811DF4
:100E00001124911DB29F700D811D1124911D089513
:100E10000E94F906A59F900DB49F900DA49F800D90
:0A0E2000911D11240895F894FFCFEE
:020E2A003C008A
:00000001FF
